:100000000C9434000C9451000C9451000C94510049
:100010000C9451000C9451000C9451000C948800E5
:100020000C9451000C9451000C9451000C9451000C
:100030000C9451000C9451000C9451000C945100FC
:100040000C9453000C9451000C9451000C945100EA
:100050000C9451000C9451000C9451000C945100DC
:100060000C9451000C94510011241FBECFEFD8E026
:10007000DEBFCDBF11E0A0E0B1E0EEE4F4E002C0ED
:1000800005900D92A230B107D9F721E0A2E0B1E0CE
:1000900001C01D92AA30B207E1F70E94C2000C9481
:1000A00025020C9400001F920F920FB60F9211249C
:1000B0008F939F93809106018F5F809306018091BB
:1000C00006018D3359F4109206018091040190913C
:1000D000050101969093050180930401809104012C
:1000E00090910501CC9769F41092050110920401DA
:1000F00080910201909103010196909303018093F6
:1001000002019F918F910F900FBE0F901F90189535
:100110001F920F920FB60F9211242F933F938F933C
:100120009F9386B1809520910901382F32279091B5
:1001300001019323892F8095809301019091000103
:10014000932398279093000183238923922F982744
:1001500090930901892390910701892B80930701CE
:100160009F918F913F912F910F900FBE0F901F90F5
:100170001895F89490910701892398279093070187
:1001800078940895CF93DF9300D0CDB7DEB7439A2C
:1001900082E08093B00096E09093B10097E2909354
:1001A000B30080937000109209010E94CD010E945B
:1001B0001D018CE00E9493010E94700178940AE076
:1001C00010E060E081E00E9469018091040190915B
:1001D0000501B8010E94D1014AE050E0BE016F5F05
:1001E0007F4F0E94E501CE0101960E94870160E0E9
:1001F00080E00E9469018091040190910501B8019D
:100200000E94D101CB014AE050E0BE016F5F7F4FF9
:100210000E94E501CE0101960E94870188E00E94BC
:10022000B900882371F28091040190910501019633
:100230009093050180930401C4CF81E080936E0008
:1002400008955C9A00005C980895CF93DF93D82FAF
:10025000662311F05A9A01C05A985B9887B18F6053
:1002600087B9C8B1C07F8D2F82958F708C2B88B9CC
:100270000E942101DF70DC2BD8B90E942101CF60E0
:10028000C8B9DF91CF9108955A985B9A87B1807F62
:1002900087B95C9A000096B15C9800005C9A0000F7
:1002A00026B12F70892F8295807F5C98822B0895CC
:1002B0000E94440187FDFCCF00C000C00C944401A3
:1002C000CF93C82F0E94580160E08C2FCF910C94DF
:1002D0002501611102C0805801C080540C94600156
:1002E00081E00C946001CF93C82F0E945801CA305E
:1002F00049F4803410F080E001C080E48058CF9150
:100300000C94600161E08C2FCF910C942501CF9368
:10031000DF93EC018991882319F00E947301FACFD1
:10032000DF91CF910895CF93C82F87B18F6087B9A0
:10033000529A539A549A8FE99FE00197F1F700C0BF
:100340000000419A409A0E94210181EE94E00197B9
:10035000F1F700C000000E94210195E19A95F1F7A4
:1003600000000E94210185E18A95F1F70000409884
:100370000E94210195E19A95F1F7000088E20E9420
:10038000600188E00E9460010E94700186E00E9486
:1003900060018C2FCF910C94600185B5836085BD81
:1003A0000895AA1BBB1B51E107C0AA1FBB1FA617BC
:1003B000B70710F0A61BB70B881F991F5A95A9F70E
:1003C00080959095BC01CD0108954532510520F4EA
:1003D000423010F00C94F001FB011082CB01089523
:1003E000BB274A3031F4992322F4BDE290958195E0
:1003F0009F4F0C94FC01BB27FB015527AA27880FB0
:10040000991FAA1FA41710F0A41B83955051B9F788
:10041000A05DAA3308F0A95DA193009779F7B11107
:10042000B1931192CB010C941502DC01FC01672FF2
:1004300071917723E1F7329704C07C916D937083BB
:0E0440006291AE17BF07C8F30895F894FFCF7E
:02044E00FFFFAE
:00000001FF
