:100000000C9434000C9451000C9451000C94510049
:100010000C9451000C9451000C9451000C94240148
:100020000C9451000C9451000C9451000C9451000C
:100030000C9451000C9451000C9451000C945100FC
:100040000C9403010C9451000C9451000C94510039
:100050000C9451000C9451000C9451000C945100DC
:100060000C9451000C94510011241FBECFEFD8E026
:10007000DEBFCDBF11E0A0E0B1E0ECE8F6E002C0E9
:1000800005900D92A832B107D9F721E0A8E2B1E0BE
:1000900001C01D92A933B207E1F70E9455010C94EB
:1000A00044030C94000081E080936E0008955C9AF4
:1000B00000005C980895CF93DF93D82F662311F04A
:1000C0005A9A01C05A985B9887B18F6087B9C8B1B6
:1000D000C07F8D2F82958F708C2B88B90E9457001E
:1000E000DF70DC2BD8B90E945700CF60C8B9DF9110
:1000F000CF9108955A985B9A87B1807F87B95C9AAF
:10010000000096B15C9800005C9A000026B12F7048
:10011000892F8295807F5C98822B08950E947A00B7
:1001200087FDFCCF00C000C00C947A00CF93C82F8D
:100130000E948E0060E08C2FCF910C945B006111C7
:1001400002C0805801C080540C94960081E00C9449
:100150009600CF93C82F0E948E00CA3049F4803495
:1001600010F080E001C080E48058CF910C9496009C
:1001700061E08C2FCF910C945B00CF93DF93EC0167
:100180008991882319F00E94A900FACFDF91CF91BD
:100190000895CF93C82F87B18F6087B9529A539A29
:1001A000549A8FE99FE00197F1F700C00000419A4F
:1001B000409A0E94570081EE94E00197F1F700C049
:1001C00000000E94570095E19A95F1F700000E9407
:1001D000570085E18A95F1F7000040980E9457008A
:1001E00095E19A95F1F7000088E20E94960088E078
:1001F0000E9496000E94A60086E00E9496008C2F26
:10020000CF910C9496001F920F920FB60F9211246B
:100210008F939F93809130018F5F8D3319F080937E
:1002200030010BC010923001809135019091360160
:10023000019690933601809335019F918F910F9095
:100240000FBE0F901F9018951F920F920FB60F922E
:1002500011242F933F938F939F9389B18095209181
:100260003801382F3227909101019323892F8095EF
:1002700080930101909100019323982790930001AE
:1002800083238923922F9827909338018923909173
:100290003701892B809337019F918F913F912F9147
:1002A0000F900FBE0F901F901895109238010E946A
:1002B00079020E9475020E9453008CE00E94C900DE
:1002C0000E94A6008AB18C718AB98BB1836E8BB9FA
:1002D0003C987894409135015091360160913301FA
:1002E00070913401809131019091320100E020E061
:1002F0000E94CA0240E069E0349B03C082E091E0C2
:1003000002C080E291E00E94FA0280912F018823CE
:10031000A9F040912D0150912E0160912B01709117
:100320002C0101E020E08091290190912A010E9496
:10033000CA0241E069E089E091E004C041E060E088
:1003400081E191E00E94FA0280E40E94C1028823C8
:1003500031F09091280181E089278093280180E87D
:100360000E94C102882331F090912F0181E08927FA
:1003700080932F018091280181112BC082E00E947F
:10038000C102882349F08091330190913401019694
:10039000909334018093330181E00E94C10288234D
:1003A00049F0809135019091360101969093360184
:1003B0008093350180E20E94C1028823A1F18091DF
:1003C0003101909132010196909332018093310175
:1003D0002AC082E00E94C102882349F080912B014B
:1003E00090912C01019690932C0180932B0181E038
:1003F0000E94C102882349F080912D0190912E0125
:10040000019690932E0180932D0180E20E94C102FB
:10041000882349F08091290190912A0101969093B7
:100420002A01809329018091350190913601CC9762
:1004300069F4109236011092350180913301909148
:1004400034010196909334018093330180913301FC
:1004500090913401CC9769F41092340110923301D9
:1004600080913101909132010196909332018093F5
:1004700031018091310190913201489721F410921D
:1004800032011092310180912B0190912C01CC9777
:1004900069F410922C0110922B0180912901909106
:1004A0002A01019690932A018093290180912D01C0
:1004B00090912E01CC9769F410922E0110922D018B
:1004C00080912B0190912C01019690932C018093A7
:1004D0002B018091290190912A01489709F0FACEC9
:1004E00010922A0110922901F5CE85B5836085BD51
:1004F000089582E08093B00096E09093B10097E277
:100500009093B300809370000895EF92FF920F9341
:100510001F93CF93DF9300D000D0CDB7DEB77C011F
:10052000162F042F642F81E0810F0E949F00C701C6
:100530006AE070E00E9406037B014AE0BE016F5F43
:100540007F4F0E941A03CE0101960E94BD00602FCA
:10055000812F0E949F004AE0BE016F5F7F4FC7015D
:100560000E941A03CE0101960E94BD000F900F90C9
:100570000F900F90DF91CF911F910F91FF90EF900F
:100580000895F89490913701892398279093370123
:1005900078940895CF92DF92EF92FF920F93CF93CA
:1005A0007C016B01CA01C22F66E0620F402F0E94DE
:1005B0008502602F85E08C0F0E949F008AE30E94D5
:1005C000A90063E06C0F402FC6010E948502602FD6
:1005D00082E08C0F0E949F008AE30E94A900402FB6
:1005E0006C2FC701CF910F91FF90EF90DF90CF90CC
:1005F0000C948502CF93DF93EC01862F642F0E9429
:100600009F00CE01DF91CF910C94BD00AA1BBB1BB4
:1006100051E107C0AA1FBB1FA617B70710F0A61B02
:10062000B70B881F991F5A95A9F780959095BC0123
:10063000CD010895BB27FB015527AA27880F991FD5
:10064000AA1FA41710F0A41B83955051B9F7A05D01
:10065000AA3308F0A95DA193009779F7B111B1937E
:100660001192CB010C943403DC01FC01672F7191D2
:100670007723E1F7329704C07C916D937083629188
:0C068000AE17BF07C8F30895F894FFCF31
:10068C00FFFF4D6F74696F6E00416C61726D4F6E40
:10069C00002020202020202020202020202020206E
:0806AC00202020202020200066
:00000001FF
