:100000000C9434000C9451000C9451000C94510049
:100010000C9451000C9451000C9451000C948700E6
:100020000C9451000C9451000C9451000C9451000C
:100030000C9451000C9451000C9451000C945100FC
:100040000C9453000C9451000C9451000C945100EA
:100050000C9451000C9451000C9451000C945100DC
:100060000C9451000C94510011241FBECFEFD8E026
:10007000DEBFCDBF11E0A0E0B1E0E6EFF4E002C0EA
:1000800005900D92A230B107D9F721E0A2E0B1E0CE
:1000900001C01D92A930B207E1F70E94B8000C948C
:1000A00079020C9400001F920F920FB60F92112448
:1000B0008F939F93809102018F5F8D3319F080930E
:1000C00002010BC01092020180910501909106017E
:1000D000019690930601809305018091050190910E
:1000E0000601CC9769F410920601109205018091E7
:1000F0000301909104010196909304018093030100
:100100009F918F910F900FBE0F901F9018951F9287
:100110000F920FB60F9211242F933F938F939F93BB
:1001200086B1809520910801382F322790910101E6
:100130009323892F8095809301019091000193234F
:1001400098279093000183238923922F98279093D7
:100150000801892390910701892B809307019F91C2
:100160008F913F912F910F900FBE0F901F90189578
:10017000CF93DF9300D0CDB7DEB7109208010E9475
:1001800010020E940C020E945C018CE00E94D201CD
:100190000E94AF0187B18F7C87B988B1806388B92D
:1001A00078940AE010E060E084E00E94A801809169
:1001B000050190910601B8010E9425024AE050E035
:1001C000BE016F5F7F4F0E943902CE0101960E94EF
:1001D000C60160E083E00E94A80180910501909132
:1001E0000601B8010E942502CB014AE050E0BE01A1
:1001F0006F5F7F4F0E943902CE0101960E94C601B7
:1002000060E082E00E94A8018AE30E94B20160E0FF
:1002100081E00E94A8018091030190910401B8013E
:100220000E9425024AE050E0BE016F5F7F4F0E94AE
:100230003902CE0101960E94C60160E080E00E9472
:10024000A8018091030190910401B8010E94250248
:10025000CB014AE050E0BE016F5F7F4F0E94390240
:10026000CE0101960E94C60180E10E941C028823F3
:1002700049F080910301909104010196909304014B
:100280008093030180E20E941C02882349F0809140
:100290000501909106010196909306018093050156
:1002A0008091030190910401CC9709F07CCF1092CA
:1002B00004011092030177CF81E080936E000895CE
:1002C0005C9A00005C980895CF93DF93D82F662343
:1002D00011F05A9A01C05A985B9887B18F6087B91C
:1002E000C8B1C07F8D2F82958F708C2B88B90E94EA
:1002F0006001DF70DC2BD8B90E946001CF60C8B903
:10030000DF91CF9108955A985B9A87B1807F87B922
:100310005C9A000096B15C9800005C9A000026B1DF
:100320002F70892F8295807F5C98822B08950E9480
:10033000830187FDFCCF00C000C00C948301CF93E4
:10034000C82F0E94970160E08C2FCF910C9464011C
:10035000611102C0805801C080540C949F0181E05B
:100360000C949F01CF93C82F0E949701CA3049F483
:10037000803410F080E001C080E48058CF910C946C
:100380009F0161E08C2FCF910C946401CF93DF9398
:10039000EC018991882319F00E94B201FACFDF9114
:1003A000CF910895CF93C82F87B18F6087B9529AA4
:1003B000539A549A8FE99FE00197F1F700C000002B
:1003C000419A409A0E94600181EE94E00197F1F712
:1003D00000C000000E94600195E19A95F1F70000CD
:1003E0000E94600185E18A95F1F7000040980E9423
:1003F000600195E19A95F1F7000088E20E949F0163
:1004000088E00E949F010E94AF0186E00E949F0148
:100410008C2FCF910C949F0185B5836085BD089585
:1004200082E08093B00096E09093B10097E29093C1
:10043000B300809370000895F89490910701892388
:1004400098279093070178940895AA1BBB1B51E14C
:1004500007C0AA1FBB1FA617B70710F0A61BB70B34
:10046000881F991F5A95A9F780959095BC01CD01D9
:1004700008954532510520F4423010F00C944402A6
:10048000FB011082CB010895BB274A3031F4992338
:1004900022F4BDE2909581959F4F0C945002BB27AA
:1004A000FB015527AA27880F991FAA1FA41710F030
:1004B000A41B83955051B9F7A05DAA3308F0A95D3C
:1004C000A193009779F7B111B1931192CB010C94DC
:1004D0006902DC01FC01672F71917723E1F7329704
:1004E00004C07C916D9370836291AE17BF07C8F30F
:0604F0000895F894FFCF0F
:0204F600FFFF06
:00000001FF
