:100000000C9434000C9451000C9451000C94510049
:100010000C9451000C9451000C9451000C94370135
:100020000C9451000C9451000C9451000C9451000C
:100030000C9451000C9451000C9451000C945100FC
:100040000C9403010C9451000C9451000C94510039
:100050000C9451000C9451000C9451000C945100DC
:100060000C9451000C94510011241FBECFEFD8E026
:10007000DEBFCDBF11E0A0E0B1E0EAE3F5E002C0F1
:1000800005900D92A830B107D9F721E0A8E0B1E0C2
:1000900001C01D92A131B207E1F70E9468010C94E2
:1000A0009B020C94000081E080936E0008955C9A9E
:1000B00000005C980895CF93DF93D82F662311F04A
:1000C0005A9A01C05A985B9887B18F6087B9C8B1B6
:1000D000C07F8D2F82958F708C2B88B90E9457001E
:1000E000DF70DC2BD8B90E945700CF60C8B9DF9110
:1000F000CF9108955A985B9A87B1807F87B95C9AAF
:10010000000096B15C9800005C9A000026B12F7048
:10011000892F8295807F5C98822B08950E947A00B7
:1001200087FDFCCF00C000C00C947A00CF93C82F8D
:100130000E948E0060E08C2FCF910C945B006111C7
:1001400002C0805801C080540C94960081E00C9449
:100150009600CF93C82F0E948E00CA3049F4803495
:1001600010F080E001C080E48058CF910C9496009C
:1001700061E08C2FCF910C945B00CF93DF93EC0167
:100180008991882319F00E94A900FACFDF91CF91BD
:100190000895CF93C82F87B18F6087B9529A539A29
:1001A000549A8FE99FE00197F1F700C00000419A4F
:1001B000409A0E94570081EE94E00197F1F700C049
:1001C00000000E94570095E19A95F1F700000E9407
:1001D000570085E18A95F1F7000040980E9457008A
:1001E00095E19A95F1F7000088E20E94960088E078
:1001F0000E9496000E94A60086E00E9496008C2F26
:10020000CF910C9496001F920F920FB60F9211246B
:100210008F939F93809108018F5F8D3319F08093A6
:1002200008010BC01092080180910D0190910E0100
:10023000019690930E0180930D0180910D01909194
:100240000E01CC9769F410920E0110920D0180916D
:100250000B0190910C01019690930C0180930B017E
:100260009F918F910F900FBE0F901F9018951F9226
:100270000F920FB60F9211242F933F938F939F935A
:1002800089B1809520911001382F3227909101017A
:100290009323892F809580930101909100019323EE
:1002A00098279093000183238923922F9827909376
:1002B0001001892390910F01892B80930F019F9149
:1002C0008F913F912F910F900FBE0F901F90189517
:1002D000109210010E94F7010E94F3010E94530046
:1002E0008CE00E94C9000E94A6008AB18C7D8AB968
:1002F0008BB183628BB9789480910D0190910E013E
:1003000040E066E00E940C0260E085E00E949F00F1
:100310008AE30E94A90080910B0190910C0140E0BA
:1003200063E00E940C0260E082E00E949F008AE38A
:100330000E94A9008091090190910A0140E060E0CB
:100340000E940C0261E08BE00E949F0082E091E03D
:100350000E94BD0082E00E940302882349F0809140
:100360000B0190910C01019690930C0180930B016D
:1003700081E00E940302882349F080910D01909151
:100380000E01019690930E0180930D0180E20E9470
:100390000302882349F08091090190910A01019696
:1003A00090930A018093090180910B0190910C01B7
:1003B000CC9769F410920C0110920B018091090105
:1003C00090910A01019690930A018093090180910E
:1003D000090190910A01489709F08ECF10920A0105
:1003E0001092090189CF85B5836085BD089582E0AB
:1003F0008093B00096E09093B10097E29093B300A1
:10040000809370000895F89490910F0189239827A4
:1004100090930F0178940895EF92FF920F931F939A
:10042000CF93DF9300D0CDB7DEB77C01162F042F1A
:10043000642F81E0810F0E949F00C7016AE070E095
:100440000E9447027B014AE050E0BE016F5F7F4F90
:100450000E945B02CE0101960E94BD00602F812F99
:100460000E949F004AE050E0BE016F5F7F4FC701CE
:100470000E945B02CE0101960E94BD000F900F907A
:10048000DF91CF911F910F91FF90EF900895AA1BDC
:10049000BB1B51E107C0AA1FBB1FA617B70710F06F
:1004A000A61BB70B881F991F5A95A9F780959095A1
:1004B000BC01CD0108954532510520F4423010F0C1
:1004C0000C946602FB011082CB010895BB274A30D1
:1004D00031F4992322F4BDE2909581959F4F0C94BD
:1004E0007202BB27FB015527AA27880F991FAA1F55
:1004F000A41710F0A41B83955051B9F7A05DAA333F
:1005000008F0A95DA193009779F7B111B193119209
:10051000CB010C948B02DC01FC01672F71917723D6
:10052000E1F7329704C07C916D9370836291AE17AE
:0A053000BF07C8F30895F894FFCF49
:08053A00FFFF416C61726D00CE
:00000001FF
