:100000000C9434000C9446000C9446000C9446006A
:100010000C9446000C9446000C9446000C94460048
:100020000C9446000C9446000C9446000C94460038
:100030000C9446000C9446000C9446000C94460028
:100040000C9448000C9446000C9446000C94460016
:100050000C9446000C9446000C9446000C94460008
:100060000C9446000C94460011241FBECFEFD8E03C
:10007000DEBFCDBF21E0A0E0B1E001C01D92A53000
:10008000B207E1F70E947D000C94C4010C940000BB
:100090001F920F920FB60F9211248F939F9380910E
:1000A00004018F5F80930401809104018D3359F422
:1000B00010920401809102019091030101969093A6
:1000C0000301809302018091020190910301CC977A
:1000D00069F4109203011092020180910001909145
:1000E0000101019690930101809300019F918F91EE
:1000F0000F900FBE0F901F901895CF93DF9300D0F5
:10010000CDB7DEB70E946C010E94BC008CE00E945B
:1001100032010E940F0178940AE010E060E081E073
:100120000E9408018091020190910301B8010E9490
:1001300070014AE050E0BE016F5F7F4F0E94840172
:10014000CE0101960E94260160E080E00E94080135
:100150008091020190910301B8010E947001CB01CE
:100160004AE050E0BE016F5F7F4F0E948401CE01E4
:1001700001960E942601D2CF81E080936E000895FF
:100180005C9A00005C980895CF93DF93D82F662384
:1001900011F05A9A01C05A985B9887B18F6087B95D
:1001A000C8B1C07F8D2F82958F708C2B88B90E942B
:1001B000C000DF70DC2BD8B90E94C000CF60C8B986
:1001C000DF91CF9108955A985B9A87B1807F87B964
:1001D0005C9A000096B15C9800005C9A000026B121
:1001E0002F70892F8295807F5C98822B08950E94C2
:1001F000E30087FDFCCF00C000C00C94E300CF9368
:10020000C82F0E94F70060E08C2FCF910C94C4009F
:10021000611102C0805801C080540C94FF0081E03D
:100220000C94FF00CF93C82F0E94F700CA3049F406
:10023000803410F080E001C080E48058CF910C94AD
:10024000FF0061E08C2FCF910C94C400CF93DF931B
:10025000EC018991882319F00E941201FACFDF91F5
:10026000CF910895CF93C82F87B18F6087B9529AE5
:10027000539A549A8FE99FE00197F1F700C000006C
:10028000419A409A0E94C00081EE94E00197F1F7F4
:1002900000C000000E94C00095E19A95F1F70000AF
:1002A0000E94C00085E18A95F1F7000040980E9405
:1002B000C00095E19A95F1F7000088E20E94FF00E6
:1002C00088E00E94FF000E940F0186E00E94FF006C
:1002D0008C2FCF910C94FF0085B5836085BD089568
:1002E000AA1BBB1B51E107C0AA1FBB1FA617B7075C
:1002F00010F0A61BB70B881F991F5A95A9F7809578
:100300009095BC01CD0108954532510520F442304D
:1003100010F00C948F01FB011082CB010895BB27D4
:100320004A3031F4992322F4BDE2909581959F4F94
:100330000C949B01BB27FB015527AA27880F991F07
:10034000AA1FA41710F0A41B83955051B9F7A05D04
:10035000AA3308F0A95DA193009779F7B111B19381
:100360001192CB010C94B401DC01FC01672F719157
:100370007723E1F7329704C07C916D93708362918B
:0C038000AE17BF07C8F30895F894FFCF34
:00000001FF
