:100000000C9434000C9451000C9451000C94510049
:100010000C9451000C9451000C9451000C94240148
:100020000C9451000C9451000C9451000C9451000C
:100030000C9451000C9451000C9451000C945100FC
:100040000C9403010C9451000C9451000C94510039
:100050000C9451000C9451000C9451000C945100DC
:100060000C9451000C94510011241FBECFEFD8E026
:10007000DEBFCDBF11E0A0E0B1E0E4E7F6E002C0F2
:1000800005900D92A232B107D9F721E0A2E2B1E0CA
:1000900001C01D92A333B207E1F70E9455010C94F1
:1000A00038030C94000081E080936E0008955C9A00
:1000B00000005C980895CF93DF93D82F662311F04A
:1000C0005A9A01C05A985B9887B18F6087B9C8B1B6
:1000D000C07F8D2F82958F708C2B88B90E9457001E
:1000E000DF70DC2BD8B90E945700CF60C8B9DF9110
:1000F000CF9108955A985B9A87B1807F87B95C9AAF
:10010000000096B15C9800005C9A000026B12F7048
:10011000892F8295807F5C98822B08950E947A00B7
:1001200087FDFCCF00C000C00C947A00CF93C82F8D
:100130000E948E0060E08C2FCF910C945B006111C7
:1001400002C0805801C080540C94960081E00C9449
:100150009600CF93C82F0E948E00CA3049F4803495
:1001600010F080E001C080E48058CF910C9496009C
:1001700061E08C2FCF910C945B00CF93DF93EC0167
:100180008991882319F00E94A900FACFDF91CF91BD
:100190000895CF93C82F87B18F6087B9529A539A29
:1001A000549A8FE99FE00197F1F700C00000419A4F
:1001B000409A0E94570081EE94E00197F1F700C049
:1001C00000000E94570095E19A95F1F700000E9407
:1001D000570085E18A95F1F7000040980E9457008A
:1001E00095E19A95F1F7000088E20E94960088E078
:1001F0000E9496000E94A60086E00E9496008C2F26
:10020000CF910C9496001F920F920FB60F9211246B
:100210008F939F9380912A018F5F8D3319F0809384
:100220002A010BC010922A0180912F019091300178
:1002300001969093300180932F019F918F910F90A1
:100240000FBE0F901F9018951F920F920FB60F922E
:1002500011242F933F938F939F9389B18095209181
:100260003201382F3227909101019323892F8095F5
:1002700080930101909100019323982790930001AE
:1002800083238923922F9827909332018923909179
:100290003101892B809331019F918F913F912F9153
:1002A0000F900FBE0F901F901895109232010E9470
:1002B0006D020E9469020E9453008CE00E94C900F6
:1002C0000E94A6008AB18C718AB98BB1836E8BB9FA
:1002D000789440912F015091300160912D017091DF
:1002E0002E0180912B0190912C0100E020E00E94D2
:1002F000BE02809129018823A9F0409127015091E5
:100300002801609125017091260101E020E0809193
:100310002301909124010E94BE0241E069E082E045
:1003200091E004C041E060E08AE091E00E94EE02CA
:1003300080E40E94B502882331F09091220181E08F
:1003400089278093220180E80E94B502882331F03A
:100350009091290181E089278093290180912201D0
:1003600081112BC082E00E94B502882349F0809160
:100370002D0190912E01019690932E0180932D01D5
:1003800081E00E94B502882349F080912F0190916D
:10039000300101969093300180932F0180E20E94FA
:1003A000B5028823A1F180912B0190912C01019637
:1003B00090932C0180932B012AC082E00E94B50209
:1003C000882349F080912501909126010196909310
:1003D00026018093250181E00E94B502882349F01F
:1003E0008091270190912801019690932801809394
:1003F000270180E20E94B502882349F08091230101
:10040000909124010196909324018093230180917F
:100410002F0190913001CC9769F410923001109225
:100420002F0180912D0190912E01019690932E0124
:1004300080932D0180912D0190912E01CC9769F42C
:1004400010922E0110922D0180912B0190912C0180
:10045000019690932C0180932B0180912B01909118
:100460002C01489721F410922C0110922B018091BD
:10047000250190912601CC9769F4109226011092E3
:1004800025018091230190912401019690932401EC
:10049000809323018091270190912801CC9769F4E2
:1004A0001092280110922701809125019091260138
:1004B00001969093260180932501809123019091CC
:1004C0002401489709F005CF1092240110922301CE
:1004D00000CF85B5836085BD089582E08093B0002C
:1004E00096E09093B10097E29093B30080937000F0
:1004F0000895EF92FF920F931F93CF93DF9300D055
:1005000000D0CDB7DEB77C01162F042F642F81E019
:10051000810F0E949F00C7016AE070E00E94FA020A
:100520007B014AE0BE016F5F7F4F0E940E03CE0148
:1005300001960E94BD00602F812F0E949F004AE01B
:10054000BE016F5F7F4FC7010E940E03CE0101966F
:100550000E94BD000F900F900F900F90DF91CF91F0
:100560001F910F91FF90EF900895F89490913101B1
:10057000892398279093310178940895CF92DF9240
:10058000EF92FF920F93CF937C016B01CA01C22FB0
:1005900066E0620F402F0E947902602F85E08C0F89
:1005A0000E949F008AE30E94A90063E06C0F402F25
:1005B000C6010E947902602F82E08C0F0E949F008A
:1005C0008AE30E94A900402F6C2FC701CF910F91A1
:1005D000FF90EF90DF90CF900C947902CF93DF9350
:1005E000EC01862F642F0E949F00CE01DF91CF91F6
:1005F0000C94BD00AA1BBB1B51E107C0AA1FBB1F67
:10060000A617B70710F0A61BB70B881F991F5A959E
:10061000A9F780959095BC01CD010895BB27FB01FA
:100620005527AA27880F991FAA1FA41710F0A41BEB
:1006300083955051B9F7A05DAA3308F0A95DA19345
:10064000009779F7B111B1931192CB010C94280363
:10065000DC01FC01672F71917723E1F7329704C029
:100660007C916D9370836291AE17BF07C8F30895B4
:04067000F894FFCF2C
:10067400FFFF416C61726D4F6E002020202020200E
:100684002020202020202020202020202020202066
:02069400000064
:00000001FF
