:100000000C9434000C9451000C9451000C94510049
:100010000C9451000C9451000C9451000C947501F7
:100020000C9451000C9451000C9451000C9451000C
:100030000C9451000C9451000C9451000C945100FC
:100040000C9428010C9451000C9451000C94510014
:100050000C9451000C9451000C9451000C945100DC
:100060000C9451000C94510011241FBECFEFD8E026
:10007000DEBFCDBF11E0A0E0B1E0E0E7F7E002C0F5
:1000800005900D92A232B107D9F721E0A2E2B1E0CA
:1000900001C01D92AF32B207E1F70E94A6010C9495
:1000A000B6030C940000ECE7F0E08081806480836C
:1000B000EAE7F0E08081836080838081806A8083CA
:1000C0000895EAE7F0E080818F778083ACE7B0E0C5
:1000D0008C9184608C938081806C8083089581E012
:1000E00080936E0008955C9A00005C980895CF9309
:1000F000DF93D82F662311F05A9A01C05A985B9863
:1001000087B18F6087B9C8B1C07F8D2F82958F70FE
:100110008C2B88B90E947300DF70DC2BD8B90E9449
:100120007300CF60C8B9DF91CF9108955A985B9A58
:1001300087B1807F87B95C9A000096B15C98000017
:100140005C9A000026B12F70892F8295807F5C9881
:10015000822B08950E94960087FDFCCF00C000C04E
:100160000C949600CF93C82F0E94AA0060E08C2FB9
:10017000CF910C947700CF93C82F0E94AA0061E022
:100180008C2FCF910C947700611102C0805801C070
:1001900080540C94B20081E00C94B200CF93C82F2D
:1001A0000E94AA00CA3049F4803410F080E001C0F7
:1001B00080E48058CF910C94B20061E08C2FCF91F5
:1001C0000C947700CF93DF93EC018991882319F089
:1001D0000E94CE00FACFDF91CF910895CF93C82F20
:1001E00087B18F6087B9529A539A549A8FE99FE0EA
:1001F0000197F1F700C00000419A409A0E947300F5
:1002000081EE94E00197F1F700C000000E947300B6
:1002100095E19A95F1F700000E94730085E18A95B7
:10022000F1F7000040980E94730095E19A95F1F76C
:10023000000088E20E94B20088E00E94B2000E94A2
:10024000CB0086E00E94B2008C2FCF910C94B200BC
:100250001F920F920FB60F9211242F933F934F933B
:100260005F936F937F938F939F93AF93BF9380918F
:1002700022018F5F8D3319F08093220127C01092E5
:10028000220180912B0190912C01019690932C01D9
:1002900080932B01409178005091790024EF31E058
:1002A000429FC001439F900D529F900D11246FEF0C
:1002B00073E00E944703CB01A0E0B0E080932301EC
:1002C00090932401A0932501B0932601BF91AF9193
:1002D0009F918F917F916F915F914F913F912F915E
:1002E0000F900FBE0F901F9018951F920F920FB690
:1002F0000F9211242F933F938F939F9389B18095F1
:1003000020912E01382F3227909101019323892FBC
:1003100080958093010190910001932398279093F9
:10032000000183238923922F982790932E018923FC
:1003300090912D01892B80932D019F918F913F9159
:100340002F910F900FBE0F901F90189510922E01B5
:100350000E9491020E948D020E946F008CE00E9418
:10036000EE000E9453000E9461000E94CB003C9866
:100370008AB18C718AB98BB1836E8BB97894B12CA8
:1003800010E0C0E0D0E0E12CF12CC12CD12C409148
:100390002B0150912C016091290170912A018091CB
:1003A00027019091280100E020E00E94E202609184
:1003B000230170912401809125019091260120E074
:1003C0004CE00E941203BB2061F001E020E0A60196
:1003D000B701CE010E94E20241E069E082E091E0D3
:1003E00004C041E060E08AE091E00E943B0380E4C9
:1003F0000E94D902882311F081E0182780E80E942A
:10040000D902882311F081E0B82682E011112AC0B8
:100410000E94D902882349F08091290190912A01F4
:10042000019690932A018093290181E00E94D902CC
:10043000882349F080912B0190912C010196909393
:100440002C0180932B0180E20E94D9028823F1F0D5
:100450008091270190912801019690932801809323
:10046000270114C00E94D902882319F08FEFE81ADF
:10047000F80A81E00E94D902882319F08FEFC81A88
:10048000D80A80E20E94D9028111219680912B0125
:1004900090912C01CC9769F410922C0110922B01B1
:1004A0008091290190912A01019690932A018093CD
:1004B00029018091290190912A01CC9769F4109229
:1004C0002A0110922901809127019091280101961B
:1004D0009093280180932701809127019091280112
:1004E000489721F410922801109227018CE3E81616
:1004F000F10419F42196E12CF12C8CE3C816D104F7
:1005000029F48FEFE81AF80AC12CD12CC831D10593
:1005100009F03DCFC0E0D0E03ACF85B5836085BD1E
:10052000089582E08093B00096E09093B10097E246
:100530009093B300809370000895EF92FF920F9311
:100540001F93CF93DF9300D000D0CDB7DEB77C01EF
:10055000162F042F642F81E0810F0E94C400C70171
:100560006AE070E00E9447037B014AE0BE016F5FD2
:100570007F4F0E948C03CE0101960E94E200602F03
:10058000812F0E94C4004AE0BE016F5F7F4FC70108
:100590000E948C03CE0101960E94E2000F900F9002
:1005A0000F900F90DF91CF911F910F91FF90EF90DF
:1005B0000895F89490912D018923982790932D0107
:1005C00078940895CF92DF92EF92FF920F93CF939A
:1005D0007C016B01CA01C22F66E0620F402F0E94AE
:1005E0009D02602F85E08C0F0E94C4008AE30E9468
:1005F000CE0063E06C0F402FC6010E949D02602F69
:1006000082E08C0F0E94C4008AE30E94CE00402F3B
:100610006C2FC701CF910F91FF90EF90DF90CF909B
:100620000C949D020F931F93CF93DF9300D0CDB70F
:10063000DEB7142F022F2AE0AE014F5F5F4F0E94FA
:100640005B03602F812F0E94C400CE0101960E949F
:10065000E20060E082E0810F0E94C4008FED0E9402
:10066000BB0083E40E94CE000F900F90DF91CF91EA
:100670001F910F910895CF93DF93EC01862F642F84
:100680000E94C400CE01DF91CF910C94E200AA1B1E
:10069000BB1B51E107C0AA1FBB1FA617B70710F06D
:1006A000A61BB70B881F991F5A95A9F7809590959F
:1006B000BC01CD010895BB272A3051F4992342F49F
:1006C000BDE290958095709561957F4F8F4F9F4FBC
:1006D0000C946B03BB27FA01A62F621771058105E5
:1006E0009105330B30FB66F0AA27660F771F881F32
:1006F000991FAA1FA21710F0A21B63953850A9F7E3
:10070000A05DAA3308F0A95DA19336F7B111B193AA
:100710001082CA010C94A603BB27FB015527AA2708
:10072000880F991FAA1FA41710F0A41B839550517E
:10073000B9F7A05DAA3308F0A95DA193009779F7F6
:10074000B111B1931192CB010C94A603DC01FC0111
:10075000672F71917723E1F7329704C07C916D93F5
:1007600070836291AE17BF07C8F30895F894FFCF66
:10077000FFFF416C61726D4F6E0020202020202011
:100780002020202020202020202020202020202069
:02079000000067
:00000001FF
