:100000000C9434000C9451000C9451000C94510049
:100010000C9451000C9451000C9451000C947F01ED
:100020000C9451000C9451000C9451000C9451000C
:100030000C9451000C9451000C9451000C945100FC
:100040000C941F010C9451000C9451000C9451001D
:100050000C9451000C9451000C9451000C945100DC
:100060000C9451000C94510011241FBECFEFD8E026
:10007000DEBFCDBF11E0A0E0B1E0E0E6F6E002C0F7
:1000800005900D92A830B107D9F721E0A8E0B1E0C2
:1000900001C01D92A531B207E1F70E94B0010C9496
:1000A0002E030C940000ECE7F0E0808180648083F4
:1000B000EAE7F0E08081836080838081806A8083CA
:1000C0000895EAE7F0E080818F778083ACE7B0E0C5
:1000D0008C9184608C938081806C8083089581E012
:1000E00080936E0008955C9A00005C980895CF9309
:1000F000DF93D82F662311F05A9A01C05A985B9863
:1001000087B18F6087B9C8B1C07F8D2F82958F70FE
:100110008C2B88B90E947300DF70DC2BD8B90E9449
:100120007300CF60C8B9DF91CF9108955A985B9A58
:1001300087B1807F87B95C9A000096B15C98000017
:100140005C9A000026B12F70892F8295807F5C9881
:10015000822B08950E94960087FDFCCF00C000C04E
:100160000C949600CF93C82F0E94AA0060E08C2FB9
:10017000CF910C947700611102C0805801C0805467
:100180000C94B20081E00C94B200CF93C82F0E946F
:10019000AA00CA3049F4803410F080E001C080E445
:1001A0008058CF910C94B20061E08C2FCF910C94C9
:1001B0007700CF93DF93EC018991882319F00E9497
:1001C000C500FACFDF91CF910895CF93C82F87B1A3
:1001D0008F6087B9529A539A549A8FE99FE001979A
:1001E000F1F700C00000419A409A0E94730081EE2E
:1001F00094E00197F1F700C000000E94730095E1C0
:100200009A95F1F700000E94730085E18A95F1F755
:10021000000040980E94730095E19A95F1F7000064
:1002200088E20E94B20088E00E94B2000E94C200F0
:1002300086E00E94B2008C2FCF910C94B2001F92E6
:100240000F920FB60F9211242F933F934F935F930A
:100250006F937F938F939F93AF93BF938091080188
:100260008F5F8D3319F08093080127C01092080129
:100270008091110190911201019690931201809347
:100280001101409178005091790024EF31E0429FB4
:10029000C001439F900D529F900D11246FEF73E0AA
:1002A0000E94BF02CB01A0E0B0E0809309019093CF
:1002B0000A01A0930B01B0930C0180911101909160
:1002C0001201CC9769F410921201109211018091E1
:1002D0000F019091100101969093100180930F01EE
:1002E000BF91AF919F918F917F916F915F914F914E
:1002F0003F912F910F900FBE0F901F9018951F9256
:100300000F920FB60F9211242F933F938F939F93C9
:1003100089B1809520911401382F322790910101E5
:100320009323892F8095809301019091000193235D
:1003300098279093000183238923922F98279093E5
:100340001401892390911301892B809313019F91AC
:100350008F913F912F910F900FBE0F901F90189586
:10036000109214010E9450020E944C020E946F00E1
:100370008CE00E94E5000E9453000E9461000E94F0
:10038000C2003C988AB18C7D8AB98BB183628BB9EB
:100390007894809111019091120140E066E00E94F2
:1003A000650260E085E00E94BB008AE30E94C50010
:1003B00080910F019091100140E063E00E9465027E
:1003C00060E082E00E94BB008AE30E94C500809149
:1003D0000D0190910E0140E060E00E946502609185
:1003E000090170910A0180910B0190910C0120E0AC
:1003F0004EE00E94A10261E08BE00E94BB0082E01F
:1004000091E00E94D90082E00E945C02882349F0BA
:1004100080910F01909110010196909310018093AB
:100420000F0181E00E945C02882349F08091110154
:10043000909112010196909312018093110180E234
:100440000E945C02882349F080910D0190910E0179
:10045000019690930E0180930D0180910F01909170
:100460001001CC9769F41092100110920F01809145
:100470000D0190910E01019690930E0180930D0154
:1004800080910D0190910E01489709F082CF109252
:100490000E0110920D017DCF85B5836085BD089555
:1004A00082E08093B00096E09093B10097E2909341
:1004B000B300809370000895F894909113018923FC
:1004C00098279093130178940895EF92FF920F93D9
:1004D0001F93CF93DF9300D000D0CDB7DEB77C0160
:1004E000162F042F642F81E0810F0E94BB00C701EB
:1004F0006AE070E00E94BF027B014AE0BE016F5FCC
:100500007F4F0E940403CE0101960E94D900602F04
:10051000812F0E94BB004AE0BE016F5F7F4FC70181
:100520000E940403CE0101960E94D9000F900F9003
:100530000F900F90DF91CF911F910F91FF90EF904F
:1005400008950F931F93CF93DF9300D0CDB7DEB7FD
:10055000142F022F2AE0AE014F5F5F4F0E94D3029B
:10056000602F812F0E94BB00CE0101960E94D9000E
:100570000F900F90DF91CF911F910F910895AA1BBB
:10058000BB1B51E107C0AA1FBB1FA617B70710F07E
:10059000A61BB70B881F991F5A95A9F780959095B0
:1005A000BC01CD010895BB272A3051F4992342F4B0
:1005B000BDE290958095709561957F4F8F4F9F4FCD
:1005C0000C94E302BB27FA01A62F6217710581057F
:1005D0009105330B30FB66F0AA27660F771F881F43
:1005E000991FAA1FA21710F0A21B63953850A9F7F4
:1005F000A05DAA3308F0A95DA19336F7B111B193BC
:100600001082CA010C941E03BB27FB015527AA27A1
:10061000880F991FAA1FA41710F0A41B839550518F
:10062000B9F7A05DAA3308F0A95DA193009779F707
:10063000B111B1931192CB010C941E03DC01FC01AA
:10064000672F71917723E1F7329704C07C916D9306
:1006500070836291AE17BF07C8F30895F894FFCF77
:08066000FFFF416C61726D00A7
:00000001FF
