:100000000C9434000C9451000C9451000C94510049
:100010000C9451000C9451000C9451000C948800E5
:100020000C9451000C9451000C9451000C9451000C
:100030000C9451000C9451000C9451000C945100FC
:100040000C9453000C9451000C9451000C945100EA
:100050000C9451000C9451000C9451000C945100DC
:100060000C9451000C94510011241FBECFEFD8E026
:10007000DEBFCDBF11E0A0E0B1E0EEEBF4E002C0E6
:1000800005900D92A230B107D9F721E0A2E0B1E0CE
:1000900001C01D92A930B207E1F70E94C2000C9482
:1000A0005D020C9400001F920F920FB60F92112464
:1000B0008F939F93809106018F5F809306018091BB
:1000C00006018D3359F4109206018091040190913C
:1000D000050101969093050180930401809104012C
:1000E00090910501CC9769F41092050110920401DA
:1000F00080910201909103010196909303018093F6
:1001000002019F918F910F900FBE0F901F90189535
:100110001F920F920FB60F9211242F933F938F933C
:100120009F9386B1809520910801382F32279091B6
:1001300001019323892F8095809301019091000103
:10014000932398279093000183238923922F982744
:1001500090930801892390910701892B80930701CF
:100160009F918F913F912F910F900FBE0F901F90F5
:100170001895F89490910701892398279093070187
:1001800078940895CF93DF9300D0CDB7DEB7439A2C
:10019000109208010E94FD010E94F9010E9449018C
:1001A0008CE00E94BF010E949C0178940AE010E05C
:1001B00060E084E00E949501809104019091050126
:1001C000B8010E9409024AE050E0BE016F5F7F4F14
:1001D0000E941D02CE0101960E94B30160E083E0FF
:1001E0000E9495018091040190910501B8010E943F
:1001F0000902CB014AE050E0BE016F5F7F4F0E94D1
:100200001D02CE0101960E94B30160E082E00E94CF
:1002100095018AE30E949F0160E081E00E949501C0
:100220008091020190910301B8010E9409024AE005
:1002300050E0BE016F5F7F4F0E941D02CE0101960C
:100240000E94B30160E080E00E949501809102016C
:1002500090910301B8010E940902CB014AE050E0ED
:10026000BE016F5F7F4F0E941D02CE0101960E946A
:10027000B30188E00E94B900882309F499CF8091E6
:10028000040190910501019690930501809304016A
:100290008FCF81E080936E0008955C9A00005C9897
:1002A0000895CF93DF93D82F662311F05A9A01C097
:1002B0005A985B9887B18F6087B9C8B1C07F8D2F7E
:1002C00082958F708C2B88B90E944D01DF70DC2BDA
:1002D000D8B90E944D01CF60C8B9DF91CF91089580
:1002E0005A985B9A87B1807F87B95C9A000096B173
:1002F0005C9800005C9A000026B12F70892F8295CF
:10030000807F5C98822B08950E94700187FDFCCF4E
:1003100000C000C00C947001CF93C82F0E948401CC
:1003200060E08C2FCF910C945101611102C0805874
:1003300001C080540C948C0181E00C948C01CF930B
:10034000C82F0E948401CA3049F4803410F080E044
:1003500001C080E48058CF910C948C0161E08C2F17
:10036000CF910C945101CF93DF93EC0189918823B5
:1003700019F00E949F01FACFDF91CF910895CF939A
:10038000C82F87B18F6087B9529A539A549A8FE9D0
:100390009FE00197F1F700C00000419A409A0E9447
:1003A0004D0181EE94E00197F1F700C000000E943A
:1003B0004D0195E19A95F1F700000E944D0185E10C
:1003C0008A95F1F7000040980E944D0195E19A95B9
:1003D000F1F7000088E20E948C0188E00E948C0105
:1003E0000E949C0186E00E948C018C2FCF910C947E
:1003F0008C0185B5836085BD089582E08093B0004F
:1004000096E09093B10097E29093B30080937000D0
:100410000895AA1BBB1B51E107C0AA1FBB1FA6174B
:10042000B70710F0A61BB70B881F991F5A95A9F79D
:1004300080959095BC01CD0108954532510520F479
:10044000423010F00C942802FB011082CB01089579
:10045000BB274A3031F4992322F4BDE2909581956F
:100460009F4F0C943402BB27FB015527AA27880F06
:10047000991FAA1FA41710F0A41B83955051B9F718
:10048000A05DAA3308F0A95DA193009779F7B11197
:10049000B1931192CB010C944D02DC01FC01672F4A
:1004A00071917723E1F7329704C07C916D9370834B
:0E04B0006291AE17BF07C8F30895F894FFCF0E
:0204BE00FFFF3E
:00000001FF
