:100000000C9441000C945E000C945E000C945E0015
:100010000C945E000C945E000C945E000C943A010B
:100020000C945E000C945E000C945E000C945E00D8
:100030000C945E000C945E000C945E000C945E00C8
:100040000C9410010C945E000C945E000C945E0005
:100050000C945E000C945E000C945E000C945E00A8
:100060000C945E000C945E0014001500160017003E
:10007000180019001A001B001C001D001E001F00A4
:10008000000011241FBECFEFD8E0DEBFCDBF11E0CE
:10009000A0E0B1E0E4E7F7E002C005900D92A832DD
:1000A000B107D9F721E0A8E2B1E001C01D92AC335D
:1000B000B207E1F70E946B010C94B8030C940000A6
:1000C00081E080936E0008955C9A00005C9808952A
:1000D000CF93DF93D82F662311F05A9A01C05A9814
:1000E0005B9887B18F6087B9C8B1C07F8D2F82952B
:1000F0008F708C2B88B90E946400DF70DC2BD8B91C
:100100000E946400CF60C8B9DF91CF9108955A98DA
:100110005B9A87B1807F87B95C9A000096B15C9842
:1001200000005C9A000026B12F70892F8295807F95
:100130005C98822B08950E94870087FDFCCF00C049
:1001400000C00C948700CF93C82F0E949B0060E0F2
:100150008C2FCF910C946800611102C0805801C0AF
:1001600080540C94A30081E00C94A300CF93C82F7B
:100170000E949B00CA3049F4803410F080E001C036
:1001800080E48058CF910C94A30061E08C2FCF9134
:100190000C946800CF93DF93EC018991882319F0C8
:1001A0000E94B600FACFDF91CF910895CF93C82F68
:1001B00087B18F6087B9529A539A549A8FE99FE01A
:1001C0000197F1F700C00000419A409A0E94640034
:1001D00081EE94E00197F1F700C000000E946400F6
:1001E00095E19A95F1F700000E94640085E18A95F7
:1001F000F1F7000040980E94640095E19A95F1F7AC
:10020000000088E20E94A30088E00E94A3000E94F0
:10021000B30086E00E94A3008C2FCF910C94A30022
:100220001F920F920FB60F9211248F939F9380917C
:1002300031018F5F8D3319F08093310114C010921A
:1002400031018091380190913901019690933901E3
:1002500080933801809132019091330102969093FE
:100260003301809332019F918F910F900FBE0F90B9
:100270001F9018951F920F920FB60F9211242F9373
:100280003F938F939F9389B1809520913B01382FA5
:100290003227909101019323892F8095809301014A
:1002A0009091000193239827909300018323892341
:1002B000922F982790933B01892390913A01892BA3
:1002C00080933A019F918F913F912F910F900FBE94
:1002D0000F901F90189588E690E0909333018093DB
:1002E000320110923B010E94DA020E94D6020E9463
:1002F000E6020E9460008CE00E94D6000E94B300DB
:100300008AB18C718AB98BB1836E8BB93C98789421
:10031000C8E6D0E010923001409138015091390187
:1003200060913601709137018091340190913501CF
:1003300000E020E00E943E038091300140E069E04F
:10034000882319F082E091E002C080E291E00E94EF
:100350006E0380912F018823A9F040912D015091C7
:100360002E0160912B0170912C0101E020E0809121
:10037000290190912A010E943E0341E069E089E051
:1003800091E004C041E060E081E191E00E946E03F1
:1003900080E40E943503882331F09091280181E0A8
:1003A00089278093280180E80E943503882331F053
:1003B00090912F0181E0892780932F01809128015E
:1003C00081112BC082E00E943503882349F080917F
:1003D0003601909137010196909337018093360151
:1003E00081E00E943503882349F080913801909183
:1003F00039010196909339018093380180E20E947F
:1004000035038823A1F18091340190913501019643
:1004100090933501809334012AC082E00E94350315
:10042000882349F080912B0190912C0101969093A3
:100430002C0180932B0181E00E943503882349F031
:1004400080912D0190912E01019690932E01809321
:100450002D0180E20E943503882349F08091290113
:1004600090912A01019690932A018093290180910D
:10047000380190913901CC9769F4109239011092AA
:1004800038018091360190913701019690933701A0
:10049000809336018091360190913701CC9769F4B1
:1004A00010923701109236018091340190913501FC
:1004B000019690933501809334018091340190919D
:1004C0003501489721F41092350110923401809142
:1004D0002B0190912C01CC9769F410922C01109271
:1004E0002B018091290190912A01019690932A0174
:1004F0008093290180912D0190912E01CC9769F470
:1005000010922E0110922D0180912B0190912C01BF
:10051000019690932C0180932B0180912901909159
:100520002A01489721F410922A0110922901E091A2
:100530003201F0913301859194910E94F402E0918F
:100540003201F0913301E491E11104C0D093330101
:10055000C093320180912F01882331F12091340121
:10056000309135018091290190912A01281739078E
:10057000D9F4209136013091370180912B0190916F
:100580002C012817390781F4219A809130018823A2
:1005900009F4C0CE80912B0190912C010996909383
:1005A0002C0180932B01B6CE2198B4CE85B5836003
:1005B00085BD089582E08093B00096E09093B100ED
:1005C00097E29093B300809370000895E0E8F0E024
:1005D000808183648083E1E8F0E0808183608083B0
:1005E000808188618083089590938900809388003A
:1005F0000895EF92FF920F931F93CF93DF9300D054
:1006000000D0CDB7DEB77C01162F042F642F81E018
:10061000810F0E94AC00C7016AE070E00E947A037B
:100620007B014AE0BE016F5F7F4F0E948E03CE01C7
:1006300001960E94CA00602F812F0E94AC004AE000
:10064000BE016F5F7F4FC7010E948E03CE010196EE
:100650000E94CA000F900F900F900F90DF91CF91E2
:100660001F910F91FF90EF900895F89490913A01A7
:100670008923982790933A0178940895CF92DF9236
:10068000EF92FF920F93CF937C016B01CA01C22FAF
:1006900066E0620F402F0E94F902602F85E08C0F08
:1006A0000E94AC008AE30E94B60063E06C0F402F0A
:1006B000C6010E94F902602F82E08C0F0E94AC00FC
:1006C0008AE30E94B600402F6C2FC701CF910F9193
:1006D000FF90EF90DF90CF900C94F902CF93DF93CF
:1006E000EC01862F642F0E94AC00CE01DF91CF91E8
:1006F0000C94CA00AA1BBB1B51E107C0AA1FBB1F59
:10070000A617B70710F0A61BB70B881F991F5A959D
:10071000A9F780959095BC01CD010895BB27FB01F9
:100720005527AA27880F991FAA1FA41710F0A41BEA
:1007300083955051B9F7A05DAA3308F0A95DA19344
:10074000009779F7B111B1931192CB010C94A803E2
:10075000DC01FC01672F71917723E1F7329704C028
:100760007C916D9370836291AE17BF07C8F30895B3
:04077000F894FFCF2B
:10077400FFFF4D6F74696F6E00416C61726D4F6E57
:100784000020202020202020202020202020202085
:0807940020202020202020007D
:00000001FF
