:100000000C9434000C9451000C9451000C94510049
:100010000C9451000C9451000C9451000C94240148
:100020000C9451000C9451000C9451000C9451000C
:100030000C9451000C9451000C9451000C945100FC
:100040000C9403010C9451000C9451000C94510039
:100050000C9451000C9451000C9451000C945100DC
:100060000C9451000C94510011241FBECFEFD8E026
:10007000DEBFCDBF11E0A0E0B1E0E4E1F7E002C0F7
:1000800005900D92A832B107D9F721E0A8E2B1E0BE
:1000900001C01D92AA33B207E1F70E9455010C94EA
:1000A00088030C94000081E080936E0008955C9AB0
:1000B00000005C980895CF93DF93D82F662311F04A
:1000C0005A9A01C05A985B9887B18F6087B9C8B1B6
:1000D000C07F8D2F82958F708C2B88B90E9457001E
:1000E000DF70DC2BD8B90E945700CF60C8B9DF9110
:1000F000CF9108955A985B9A87B1807F87B95C9AAF
:10010000000096B15C9800005C9A000026B12F7048
:10011000892F8295807F5C98822B08950E947A00B7
:1001200087FDFCCF00C000C00C947A00CF93C82F8D
:100130000E948E0060E08C2FCF910C945B006111C7
:1001400002C0805801C080540C94960081E00C9449
:100150009600CF93C82F0E948E00CA3049F4803495
:1001600010F080E001C080E48058CF910C9496009C
:1001700061E08C2FCF910C945B00CF93DF93EC0167
:100180008991882319F00E94A900FACFDF91CF91BD
:100190000895CF93C82F87B18F6087B9529A539A29
:1001A000549A8FE99FE00197F1F700C00000419A4F
:1001B000409A0E94570081EE94E00197F1F700C049
:1001C00000000E94570095E19A95F1F700000E9407
:1001D000570085E18A95F1F7000040980E9457008A
:1001E00095E19A95F1F7000088E20E94960088E078
:1001F0000E9496000E94A60086E00E9496008C2F26
:10020000CF910C9496001F920F920FB60F9211246B
:100210008F939F93809131018F5F8D3319F080937D
:1002200031010BC01092310180913601909137015C
:10023000019690933701809336019F918F910F9093
:100240000FBE0F901F9018951F920F920FB60F922E
:1002500011242F933F938F939F9389B18095209181
:100260003901382F3227909101019323892F8095EE
:1002700080930101909100019323982790930001AE
:1002800083238923922F9827909339018923909172
:100290003801892B809338019F918F913F912F9145
:1002A0000F900FBE0F901F901895109239010E9469
:1002B000B0020E94AC020E9453008CE00E94C90070
:1002C0000E94A6008AB18C718AB98BB1836E8BB9FA
:1002D0003C98789486B180718093300140913601CA
:1002E0005091370160913401709135018091320154
:1002F0009091330100E020E00E940E0380913001D4
:1003000040E069E0882319F082E091E002C080E2D9
:1003100091E00E943E0380912F018823A9F0409133
:100320002D0150912E0160912B0170912C0101E063
:1003300020E08091290190912A010E940E0341E062
:1003400069E089E091E004C041E060E081E191E092
:100350000E943E0380E40E940503882331F09091BF
:10036000280181E089278093280180E80E94050305
:10037000882331F090912F0181E0892780932F010C
:100380008091280181112BC082E00E9405038823FF
:1003900049F0809134019091350101969093350197
:1003A0008093340181E00E940503882349F0809105
:1003B0003601909137010196909337018093360171
:1003C00080E20E9405038823A1F18091320190917F
:1003D0003301019690933301809332012AC082E069
:1003E0000E940503882349F080912B0190912C01F4
:1003F000019690932C0180932B0181E00E940503CC
:10040000882349F080912D0190912E0101969093BF
:100410002E0180932D0180E20E940503882349F07C
:100420008091290190912A01019690932A0180934D
:1004300029018091360190913701CC9769F410928F
:100440003701109236018091340190913501019667
:10045000909335018093340180913401909135015E
:10046000CC9769F4109235011092340180913201D9
:1004700090913301019690933301809332018091E2
:10048000320190913301489721F410923301109278
:10049000320180912B0190912C01CC9769F410923C
:1004A0002C0110922B018091290190912A01019633
:1004B00090932A018093290180912D0190912E0122
:1004C000CC9769F410922E0110922D0180912B018E
:1004D00090912C01019690932C0180932B01809197
:1004E000290190912A01489721F410922A01109233
:1004F000290180912F01882309F4ECCE209132014B
:10050000309133018091290190912A0128173907F0
:10051000E9F4209134013091350180912B019091C3
:100520002C012817390791F48DE10E94BC028091BB
:100530003001882309F4CECE80912B0190912C01BB
:10054000099690932C0180932B01C4CE8091810059
:100550008C7F80938100BECE85B5836085BD089574
:1005600082E08093B00096E09093B10097E2909380
:10057000B30080937000089593E49093800090E01E
:100580009093890080938800219A8BE18093810069
:100590000895EF92FF920F931F93CF93DF9300D0B4
:1005A00000D0CDB7DEB77C01162F042F642F81E079
:1005B000810F0E949F00C7016AE070E00E944A0319
:1005C0007B014AE0BE016F5F7F4F0E945E03CE0158
:1005D00001960E94BD00602F812F0E949F004AE07B
:1005E000BE016F5F7F4FC7010E945E03CE0101967F
:1005F0000E94BD000F900F900F900F90DF91CF9150
:100600001F910F91FF90EF900895F8949091380109
:10061000892398279093380178940895CF92DF9298
:10062000EF92FF920F93CF937C016B01CA01C22F0F
:1006300066E0620F402F0E94C902602F85E08C0F98
:100640000E949F008AE30E94A90063E06C0F402F84
:10065000C6010E94C902602F82E08C0F0E949F0099
:100660008AE30E94A900402F6C2FC701CF910F9100
:10067000FF90EF90DF90CF900C94C902CF93DF935F
:10068000EC01862F642F0E949F00CE01DF91CF9155
:100690000C94BD00AA1BBB1B51E107C0AA1FBB1FC6
:1006A000A617B70710F0A61BB70B881F991F5A95FE
:1006B000A9F780959095BC01CD010895BB27FB015A
:1006C0005527AA27880F991FAA1FA41710F0A41B4B
:1006D00083955051B9F7A05DAA3308F0A95DA193A5
:1006E000009779F7B111B1931192CB010C94780373
:1006F000DC01FC01672F71917723E1F7329704C089
:100700007C916D9370836291AE17BF07C8F3089513
:04071000F894FFCF8B
:10071400FFFF4D6F74696F6E00416C61726D4F6EB7
:1007240000202020202020202020202020202020E5
:080734002020202020202000DD
:00000001FF
