:100000000C9434000C9451000C9451000C94510049
:100010000C9451000C9451000C9451000C9440012C
:100020000C9451000C9451000C9451000C9451000C
:100030000C9451000C9451000C9451000C945100FC
:100040000C941F010C9451000C9451000C9451001D
:100050000C9451000C9451000C9451000C945100DC
:100060000C9451000C94510011241FBECFEFD8E026
:10007000DEBFCDBF11E0A0E0B1E0EAE4F6E002C0EF
:1000800005900D92A232B107D9F721E0A2E2B1E0CA
:1000900001C01D92AB32B207E1F70E9471010C94CE
:1000A00023030C940000ECE7F0E0808180648083FF
:1000B000EAE7F0E08081836080838081806A8083CA
:1000C0000895EAE7F0E080818F778083ACE7B0E0C5
:1000D0008C9184608C938081806C8083089581E012
:1000E00080936E0008955C9A00005C980895CF9309
:1000F000DF93D82F662311F05A9A01C05A985B9863
:1001000087B18F6087B9C8B1C07F8D2F82958F70FE
:100110008C2B88B90E947300DF70DC2BD8B90E9449
:100120007300CF60C8B9DF91CF9108955A985B9A58
:1001300087B1807F87B95C9A000096B15C98000017
:100140005C9A000026B12F70892F8295807F5C9881
:10015000822B08950E94960087FDFCCF00C000C04E
:100160000C949600CF93C82F0E94AA0060E08C2FB9
:10017000CF910C947700611102C0805801C0805467
:100180000C94B20081E00C94B200CF93C82F0E946F
:10019000AA00CA3049F4803410F080E001C080E445
:1001A0008058CF910C94B20061E08C2FCF910C94C9
:1001B0007700CF93DF93EC018991882319F00E9497
:1001C000C500FACFDF91CF910895CF93C82F87B1A3
:1001D0008F6087B9529A539A549A8FE99FE001979A
:1001E000F1F700C00000419A409A0E94730081EE2E
:1001F00094E00197F1F700C000000E94730095E1C0
:100200009A95F1F700000E94730085E18A95F1F755
:10021000000040980E94730095E19A95F1F7000064
:1002200088E20E94B20088E00E94B2000E94C200F0
:1002300086E00E94B2008C2FCF910C94B2001F92E6
:100240000F920FB60F9211248F939F9380912201EA
:100250008F5F8D3319F0809322010BC01092220121
:100260008091270190912801019690932801809315
:1002700027019F918F910F900FBE0F901F9018959F
:100280001F920F920FB60F9211242F933F938F93CB
:100290009F9389B1809520912A01382F3227909120
:1002A00001019323892F8095809301019091000192
:1002B000932398279093000183238923922F9827D3
:1002C00090932A01892390912901892B80932901F8
:1002D0009F918F913F912F910F900FBE0F901F9084
:1002E000189510922A010E9458020E9454020E94FE
:1002F0006F008CE00E94E5000E9453000E946100A4
:100300000E94C2000E944F023C988AB18C718AB947
:100310008BB1836E8BB9229A7894B12C10E0C0E037
:10032000D0E0E12CF12CC12CD12C4091270150912F
:1003300028016091250170912601809123019091FF
:10034000240100E020E00E94A902BB2061F001E04E
:1003500020E0A601B701CE010E94A90241E069E0B8
:1003600082E091E004C041E060E08AE091E00E9418
:10037000D90280E40E94A002882311F081E01827AE
:1003800080E80E94A002882311F081E0B82682E074
:1003900011112AC00E94A002882349F080912501F2
:1003A000909126010196909326018093250181E08A
:1003B0000E94A002882349F0809127019091280192
:1003C0000196909328018093270180E20E94A00269
:1003D0008823F1F08091230190912401019690935C
:1003E00024018093230114C00E94A002882319F0E5
:1003F0008FEFE81AF80A81E00E94A002882319F022
:100400008FEFC81AD80A80E20E94A00281112196BB
:100410008091270190912801CC9769F410922801CE
:1004200010922701809125019091260101969093C9
:100430002601809325018091250190912601CC977A
:1004400069F4109226011092250180912301909168
:10045000240101969093240180932301809123012C
:1004600090912401489721F41092240110922301C5
:100470008CE3E816F10419F42196E12CF12C8CE3BD
:10048000C816D10429F48FEFE81AF80AC12CD12C30
:10049000C831D10509F049CFC0E0D0E046CF89E2AC
:1004A00084B981E58CBD089585B5836085BD0895C7
:1004B00082E08093B00096E09093B10097E2909331
:1004C000B300809370000895EF92FF920F931F93F3
:1004D000CF93DF9300D000D0CDB7DEB77C01162FCD
:1004E000042F642F81E0810F0E94BB00C7016AE0E6
:1004F00070E00E94E5027B014AE0BE016F5F7F4F22
:100500000E94F902CE0101960E94D900602F812F2E
:100510000E94BB004AE0BE016F5F7F4FC7010E948F
:10052000F902CE0101960E94D9000F900F900F9012
:100530000F90DF91CF911F910F91FF90EF90089551
:10054000F894909129018923982790932901789410
:100550000895CF92DF92EF92FF920F93CF937C0199
:100560006B01CA01C22F66E0620F402F0E94640235
:10057000602F85E08C0F0E94BB008AE30E94C500BB
:1005800063E06C0F402FC6010E946402602F82E07E
:100590008C0F0E94BB008AE30E94C500402F6C2F85
:1005A000C701CF910F91FF90EF90DF90CF900C9407
:1005B0006402CF93DF93EC01862F642F0E94BB006F
:1005C000CE01DF91CF910C94D900AA1BBB1B51E146
:1005D00007C0AA1FBB1FA617B70710F0A61BB70BB3
:1005E000881F991F5A95A9F780959095BC01CD0158
:1005F0000895BB27FB015527AA27880F991FAA1F1B
:10060000A41710F0A41B83955051B9F7A05DAA332D
:1006100008F0A95DA193009779F7B111B1931192F8
:10062000CB010C941303DC01FC01672F719177233C
:10063000E1F7329704C07C916D9370836291AE179D
:0A064000BF07C8F30895F894FFCF38
:10064A00FFFF416C61726D4F6E0020202020202038
:10065A002020202020202020202020202020202090
:02066A0000008E
:00000001FF
