:100000000C9441000C945E000C945E000C945E0015
:100010000C945E000C945E000C945E000C94310114
:100020000C945E000C945E000C945E000C945E00D8
:100030000C945E000C945E000C945E000C945E00C8
:100040000C9410010C945E000C945E000C945E0005
:100050000C945E000C945E000C945E000C945E00A8
:100060000C945E000C945E0014001500160017003E
:10007000180019001A001B001C001D001E001F00A4
:10008000000011241FBECFEFD8E0DEBFCDBF11E0CE
:10009000A0E0B1E0ECE5F7E002C005900D92A832D7
:1000A000B107D9F721E0A8E2B1E001C01D92AA335F
:1000B000B207E1F70E9462010C94AC030C940000BB
:1000C00081E080936E0008955C9A00005C9808952A
:1000D000CF93DF93D82F662311F05A9A01C05A9814
:1000E0005B9887B18F6087B9C8B1C07F8D2F82952B
:1000F0008F708C2B88B90E946400DF70DC2BD8B91C
:100100000E946400CF60C8B9DF91CF9108955A98DA
:100110005B9A87B1807F87B95C9A000096B15C9842
:1001200000005C9A000026B12F70892F8295807F95
:100130005C98822B08950E94870087FDFCCF00C049
:1001400000C00C948700CF93C82F0E949B0060E0F2
:100150008C2FCF910C946800611102C0805801C0AF
:1001600080540C94A30081E00C94A300CF93C82F7B
:100170000E949B00CA3049F4803410F080E001C036
:1001800080E48058CF910C94A30061E08C2FCF9134
:100190000C946800CF93DF93EC018991882319F0C8
:1001A0000E94B600FACFDF91CF910895CF93C82F68
:1001B00087B18F6087B9529A539A549A8FE99FE01A
:1001C0000197F1F700C00000419A409A0E94640034
:1001D00081EE94E00197F1F700C000000E946400F6
:1001E00095E19A95F1F700000E94640085E18A95F7
:1001F000F1F7000040980E94640095E19A95F1F7AC
:10020000000088E20E94A30088E00E94A3000E94F0
:10021000B30086E00E94A3008C2FCF910C94A30022
:100220001F920F920FB60F9211248F939F9380917C
:1002300031018F5F8D3319F0809331010BC0109223
:1002400031018091360190913701019690933701E9
:10025000809336019F918F910F900FBE0F901F904A
:1002600018951F920F920FB60F9211242F933F9360
:100270008F939F9389B1809520913901382F322730
:10028000909101019323892F809580930101909192
:100290000001932398279093000183238923922FB1
:1002A000982790933901892390913801892B809365
:1002B00038019F918F913F912F910F900FBE0F901A
:1002C0001F901895109239010E94D0020E94CC0212
:1002D0000E94DC020E9460008CE00E94D6000E9416
:1002E000B3008AB18C718AB98BB1836E8BB93C989B
:1002F0007894C8E6D0E010923001409136015091D8
:1003000037016091340170913501809132019091F3
:10031000330100E020E00E9432038091300140E090
:1003200069E0882319F082E091E002C080E291E068
:100330000E94620380912F018823A9F040912D0132
:1003400050912E0160912B0170912C0101E020E071
:100350008091290190912A010E94320341E069E0D5
:1003600089E091E004C041E060E081E191E00E9419
:10037000620380E40E942903882331F090912801D0
:1003800081E089278093280180E80E94290388233F
:1003900031F090912F0181E0892780932F01809186
:1003A000280181112BC082E00E942903882349F093
:1003B000809134019091350101969093350180939D
:1003C000340181E00E942903882349F0809136019D
:1003D000909137010196909337018093360180E226
:1003E0000E9429038823A1F1809132019091330169
:1003F000019690933301809332012AC082E00E94DB
:100400002903882349F080912B0190912C010196BA
:1004100090932C0180932B0181E00E942903882373
:1004200049F080912D0190912E01019690932E011B
:1004300080932D0180E20E942903882349F0809156
:10044000290190912A01019690932A018093290114
:100450008091360190913701CC9769F41092370161
:10046000109236018091340190913501019690935C
:100470003501809334018091340190913501CC97FE
:1004800069F41092350110923401809132019091FB
:1004900033010196909333018093320180913201B0
:1004A00090913301489721F4109233011092320158
:1004B00080912B0190912C01CC9769F410922C0122
:1004C00010922B018091290190912A01019690931D
:1004D0002A018093290180912D0190912E01CC97C2
:1004E00069F410922E0110922D0180912B019091B0
:1004F0002C01019690932C0180932B01809129016E
:1005000090912A01489721F410922A011092290112
:10051000809136019091370180FD2296FE018491F1
:10052000811102C0C8E6D0E080912F01882371F1CB
:1005300020913201309133018091290190912A015B
:100540002817390719F52091340130913501809130
:100550002B0190912C0128173907C1F4FE018491D9
:100560000E94E802809181008360809381008091E5
:100570003001882309F4BFCE80912B0190912C018A
:10058000099690932C0180932B01B5CE8091810028
:100590008C7F80938100AFCE85B5836085BD089543
:1005A00082E08093B00096E09093B10097E2909340
:1005B000B300809370000895E0E8F0E080818364E8
:1005C0008083219AE1E8F0E080818861808308954A
:1005D00090938900809388000895EF92FF920F9383
:1005E0001F93CF93DF9300D000D0CDB7DEB77C014F
:1005F000162F042F642F81E0810F0E94AC00C701E9
:100600006AE070E00E946E037B014AE0BE016F5F0A
:100610007F4F0E948203CE0101960E94CA00602F84
:10062000812F0E94AC004AE0BE016F5F7F4FC7017F
:100630000E948203CE0101960E94CA000F900F9083
:100640000F900F90DF91CF911F910F91FF90EF903E
:100650000895F89490913801892398279093380150
:1006600078940895CF92DF92EF92FF920F93CF93F9
:100670007C016B01CA01C22F66E0620F402F0E940D
:10068000ED02602F85E08C0F0E94AC008AE30E948F
:10069000B60063E06C0F402FC6010E94ED02602F90
:1006A00082E08C0F0E94AC008AE30E94B600402FCB
:1006B0006C2FC701CF910F91FF90EF90DF90CF90FB
:1006C0000C94ED02CF93DF93EC01862F642F0E94F0
:1006D000AC00CE01DF91CF910C94CA00AA1BBB1BCA
:1006E00051E107C0AA1FBB1FA617B70710F0A61B32
:1006F000B70B881F991F5A95A9F780959095BC0153
:10070000CD010895BB27FB015527AA27880F991F04
:10071000AA1FA41710F0A41B83955051B9F7A05D30
:10072000AA3308F0A95DA193009779F7B111B193AD
:100730001192CB010C949C03DC01FC01672F719199
:100740007723E1F7329704C07C916D9370836291B7
:0C075000AE17BF07C8F30895F894FFCF60
:10075C00FFFF4D6F74696F6E00416C61726D4F6E6F
:10076C00002020202020202020202020202020209D
:08077C00202020202020200095
:00000001FF
