:100000000C9434000C9451000C9451000C94510049
:100010000C9451000C9451000C9451000C94370135
:100020000C9451000C9451000C9451000C9451000C
:100030000C9451000C9451000C9451000C945100FC
:100040000C9403010C9451000C9451000C94510039
:100050000C9451000C9451000C9451000C945100DC
:100060000C9451000C94510011241FBECFEFD8E026
:10007000DEBFCDBF11E0A0E0B1E0EEE0F5E002C0F0
:1000800005900D92A230B107D9F721E0A2E0B1E0CE
:1000900001C01D92AB30B207E1F70E9468010C94D9
:1000A00085020C94000081E080936E0008955C9AB4
:1000B00000005C980895CF93DF93D82F662311F04A
:1000C0005A9A01C05A985B9887B18F6087B9C8B1B6
:1000D000C07F8D2F82958F708C2B88B90E9457001E
:1000E000DF70DC2BD8B90E945700CF60C8B9DF9110
:1000F000CF9108955A985B9A87B1807F87B95C9AAF
:10010000000096B15C9800005C9A000026B12F7048
:10011000892F8295807F5C98822B08950E947A00B7
:1001200087FDFCCF00C000C00C947A00CF93C82F8D
:100130000E948E0060E08C2FCF910C945B006111C7
:1001400002C0805801C080540C94960081E00C9449
:100150009600CF93C82F0E948E00CA3049F4803495
:1001600010F080E001C080E48058CF910C9496009C
:1001700061E08C2FCF910C945B00CF93DF93EC0167
:100180008991882319F00E94A900FACFDF91CF91BD
:100190000895CF93C82F87B18F6087B9529A539A29
:1001A000549A8FE99FE00197F1F700C00000419A4F
:1001B000409A0E94570081EE94E00197F1F700C049
:1001C00000000E94570095E19A95F1F700000E9407
:1001D000570085E18A95F1F7000040980E9457008A
:1001E00095E19A95F1F7000088E20E94960088E078
:1001F0000E9496000E94A60086E00E9496008C2F26
:10020000CF910C9496001F920F920FB60F9211246B
:100210008F939F93809102018F5F8D3319F08093AC
:1002200002010BC010920201809107019091080118
:1002300001969093080180930701809107019091A6
:100240000801CC9769F4109208011092070180917F
:100250000501909106010196909306018093050196
:100260009F918F910F900FBE0F901F9018951F9226
:100270000F920FB60F9211242F933F938F939F935A
:1002800086B1809520910A01382F32279091010183
:100290009323892F809580930101909100019323EE
:1002A00098279093000183238923922F9827909376
:1002B0000A01892390910901892B809309019F915B
:1002C0008F913F912F910F900FBE0F901F90189517
:1002D00010920A010E94E1010E94DD010E94530078
:1002E0008CE00E94C9000E94A60087B18F7C87B96C
:1002F00088B1806388B97894809107019091080152
:1003000040E066E00E94F60160E085E00E949F0008
:100310008AE30E94A900809105019091060140E0C6
:1003200063E00E94F60160E082E00E949F008AE3A1
:100330000E94A900809103019091040140E060E0D7
:100340000E94F60180E10E94ED01882349F080912E
:100350000501909106010196909306018093050195
:1003600080E20E94ED01882349F08091070190917D
:10037000080101969093080180930701809105017F
:1003800090910601CC9769F4109206011092050134
:100390008091030190910401019690930401809350
:1003A00003018091030190910401489709F0A4CFC3
:1003B00080910301909104019FCF85B5836085BD35
:1003C000089582E08093B00096E09093B10097E2A8
:1003D0009093B300809370000895F8949091090170
:1003E000892398279093090178940895EF92FF92BA
:1003F0000F931F93CF93DF9300D0CDB7DEB77C016F
:10040000162F042F642F81E0810F0E949F00C701E7
:100410006AE070E00E9431027B014AE050E0BE01D8
:100420006F5F7F4F0E944502CE0101960E94BD0082
:10043000602F812F0E949F004AE050E0BE016F5F55
:100440007F4FC7010E944502CE0101960E94BD0068
:100450000F900F90DF91CF911F910F91FF90EF9030
:100460000895AA1BBB1B51E107C0AA1FBB1FA617FB
:10047000B70710F0A61BB70B881F991F5A95A9F74D
:1004800080959095BC01CD0108954532510520F429
:10049000423010F00C945002FB011082CB01089501
:1004A000BB274A3031F4992322F4BDE2909581951F
:1004B0009F4F0C945C02BB27FB015527AA27880F8E
:1004C000991FAA1FA41710F0A41B83955051B9F7C8
:1004D000A05DAA3308F0A95DA193009779F7B11147
:1004E000B1931192CB010C947502DC01FC01672FD2
:1004F00071917723E1F7329704C07C916D937083FB
:0E0500006291AE17BF07C8F30895F894FFCFBD
:02050E00FFFFED
:00000001FF
