:100000000C9434000C9451000C9451000C94510049
:100010000C9451000C9451000C9451000C946C0100
:100020000C9451000C9451000C9451000C9451000C
:100030000C9451000C9451000C9451000C945100FC
:100040000C941F010C9451000C9451000C9451001D
:100050000C9451000C9451000C9451000C945100DC
:100060000C9451000C94510011241FBECFEFD8E026
:10007000DEBFCDBF11E0A0E0B1E0EAE2F7E002C0F0
:1000800005900D92A232B107D9F721E0A2E2B1E0CA
:1000900001C01D92AF32B207E1F70E949D010C949E
:1000A00093030C940000ECE7F0E08081806480838F
:1000B000EAE7F0E08081836080838081806A8083CA
:1000C0000895EAE7F0E080818F778083ACE7B0E0C5
:1000D0008C9184608C938081806C8083089581E012
:1000E00080936E0008955C9A00005C980895CF9309
:1000F000DF93D82F662311F05A9A01C05A985B9863
:1001000087B18F6087B9C8B1C07F8D2F82958F70FE
:100110008C2B88B90E947300DF70DC2BD8B90E9449
:100120007300CF60C8B9DF91CF9108955A985B9A58
:1001300087B1807F87B95C9A000096B15C98000017
:100140005C9A000026B12F70892F8295807F5C9881
:10015000822B08950E94960087FDFCCF00C000C04E
:100160000C949600CF93C82F0E94AA0060E08C2FB9
:10017000CF910C947700611102C0805801C0805467
:100180000C94B20081E00C94B200CF93C82F0E946F
:10019000AA00CA3049F4803410F080E001C080E445
:1001A0008058CF910C94B20061E08C2FCF910C94C9
:1001B0007700CF93DF93EC018991882319F00E9497
:1001C000C500FACFDF91CF910895CF93C82F87B1A3
:1001D0008F6087B9529A539A549A8FE99FE001979A
:1001E000F1F700C00000419A409A0E94730081EE2E
:1001F00094E00197F1F700C000000E94730095E1C0
:100200009A95F1F700000E94730085E18A95F1F755
:10021000000040980E94730095E19A95F1F7000064
:1002200088E20E94B20088E00E94B2000E94C200F0
:1002300086E00E94B2008C2FCF910C94B2001F92E6
:100240000F920FB60F9211242F933F934F935F930A
:100250006F937F938F939F93AF93BF93809122016E
:100260008F5F8D3319F08093220127C010922201F5
:1002700080912B0190912C01019690932C018093F9
:100280002B01409178005091790024EF31E0429F9A
:10029000C001439F900D529F900D11246FEF73E0AA
:1002A0000E942403CB01A0E0B0E08093230190934F
:1002B0002401A0932501B0932601BF91AF919F9196
:1002C0008F917F916F915F914F913F912F910F90FF
:1002D0000FBE0F901F9018951F920F920FB60F929E
:1002E00011242F933F938F939F9389B180952091F1
:1002F0002E01382F3227909101019323892F809569
:10030000809301019091000193239827909300011D
:1003100083238923922F982790932E0189239091EC
:100320002D01892B80932D019F918F913F912F91CA
:100330000F900FBE0F901F90189510922E010E94E3
:10034000B5020E94B1020E946F008CE00E94E5009D
:100350000E9453000E9461000E94C2003C988AB132
:100360008C718AB98BB1836E8BB97894C12CD12CE6
:10037000C0E0D0E000E010E0E12CF12C80912B01F6
:1003800090912C0140E066E00E94CA0260E085E0A6
:100390000E94BB008AE30E94C500809129019091D0
:1003A0002A0140E063E00E94CA0260E082E00E940D
:1003B000BB008AE30E94C50080912701909128012B
:1003C00040E060E00E94CA02609123017091240124
:1003D000809125019091260120E04EE00E940603C5
:1003E000CC2021F141E066E0C7010E94CA0261E031
:1003F00085E00E94BB008AE30E94C50041E063E003
:10040000C8010E94CA0261E082E00E94BB008AE348
:100410000E94C50041E060E0CE010E94CA0261E096
:1004200089E00E94BB0082E091E006C061E080E0CC
:100430000E94BB008AE091E00E94D90080E40E9403
:10044000C102882311F081E0D82680E80E94C10211
:10045000882311F081E0C82682E0D1102AC00E94D2
:10046000C102882349F08091290190912A010196C7
:1004700090932A018093290181E00E94C102882380
:1004800049F080912B0190912C01019690932C01C1
:1004900080932B0180E20E94C1028823E9F08091C1
:1004A00027019091280101969093280180932701BC
:1004B00013C00E94C102882311F00F5F1F4F81E01B
:1004C0000E94C102882319F08FEFE81AF80A80E22F
:1004D0000E94C1028111219680912B0190912C01E3
:1004E000CC9769F410922C0110922B018091290174
:1004F00090912A01019690932A018093290180917D
:10050000290190912A01CC9769F410922A01109246
:10051000290180912701909128010196909328014B
:10052000809327018091270190912801489721F419
:1005300010922801109227010C33110519F421960D
:1005400000E010E08CE3E816F10421F40F5F1F4F88
:10055000E12CF12CC831D10509F010CFC0E0D0E07A
:100560000DCF85B5836085BD089582E08093B0008E
:1005700096E09093B10097E29093B300809370005F
:100580000895F89490912D018923982790932D0137
:1005900078940895EF92FF920F931F93CF93DF9378
:1005A00000D000D0CDB7DEB77C01162F042F642F0A
:1005B00081E0810F0E94BB00C7016AE070E00E94E9
:1005C00024037B014AE0BE016F5F7F4F0E946903F5
:1005D000CE0101960E94D900602F812F0E94BB009E
:1005E0004AE0BE016F5F7F4FC7010E946903CE01E1
:1005F00001960E94D9000F900F900F900F90DF91FD
:10060000CF911F910F91FF90EF9008950F931F933B
:10061000CF93DF9300D0CDB7DEB7142F022F2AE09F
:10062000AE014F5F5F4F0E943803602F812F0E9401
:10063000BB00CE0101960E94D9000F900F90DF9170
:10064000CF911F910F910895AA1BBB1B51E107C0C9
:10065000AA1FBB1FA617B70710F0A61BB70B881F52
:10066000991F5A95A9F780959095BC01CD010895E1
:10067000BB272A3051F4992342F4BDE2909580952E
:10068000709561957F4F8F4F9F4F0C944803BB2708
:10069000FA01A62F6217710581059105330B30FB16
:1006A00066F0AA27660F771F881F991FAA1FA21737
:1006B00010F0A21B63953850A9F7A05DAA3308F08B
:1006C000A95DA19336F7B111B1931082CA010C94C0
:1006D0008303BB27FB015527AA27880F991FAA1F51
:1006E000A41710F0A41B83955051B9F7A05DAA334D
:1006F00008F0A95DA193009779F7B111B193119218
:10070000CB010C948303DC01FC01672F71917723EB
:10071000E1F7329704C07C916D9370836291AE17BC
:0A072000BF07C8F30895F894FFCF57
:10072A00FFFF416C61726D4F6E0020202020202057
:10073A0020202020202020202020202020202020AF
:02074A000000AD
:00000001FF
