:100000000C9434000C9451000C9451000C94510049
:100010000C9451000C9451000C9451000C94530119
:100020000C9451000C9451000C9451000C9451000C
:100030000C9451000C9451000C9451000C945100FC
:100040000C941F010C9451000C9451000C9451001D
:100050000C9451000C9451000C9451000C945100DC
:100060000C9451000C94510011241FBECFEFD8E026
:10007000DEBFCDBF11E0A0E0B1E0E4EBF6E002C0EE
:1000800005900D92A830B107D9F721E0A8E0B1E0C2
:1000900001C01D92A131B207E1F70E9484010C94C6
:1000A00058030C940000ECE7F0E0808180648083CA
:1000B000EAE7F0E08081836080838081806A8083CA
:1000C0000895EAE7F0E080818F778083ACE7B0E0C5
:1000D0008C9184608C938081806C8083089581E012
:1000E00080936E0008955C9A00005C980895CF9309
:1000F000DF93D82F662311F05A9A01C05A985B9863
:1001000087B18F6087B9C8B1C07F8D2F82958F70FE
:100110008C2B88B90E947300DF70DC2BD8B90E9449
:100120007300CF60C8B9DF91CF9108955A985B9A58
:1001300087B1807F87B95C9A000096B15C98000017
:100140005C9A000026B12F70892F8295807F5C9881
:10015000822B08950E94960087FDFCCF00C000C04E
:100160000C949600CF93C82F0E94AA0060E08C2FB9
:10017000CF910C947700611102C0805801C0805467
:100180000C94B20081E00C94B200CF93C82F0E946F
:10019000AA00CA3049F4803410F080E001C080E445
:1001A0008058CF910C94B20061E08C2FCF910C94C9
:1001B0007700CF93DF93EC018991882319F00E9497
:1001C000C500FACFDF91CF910895CF93C82F87B1A3
:1001D0008F6087B9529A539A549A8FE99FE001979A
:1001E000F1F700C00000419A409A0E94730081EE2E
:1001F00094E00197F1F700C000000E94730095E1C0
:100200009A95F1F700000E94730085E18A95F1F755
:10021000000040980E94730095E19A95F1F7000064
:1002200088E20E94B20088E00E94B2000E94C200F0
:1002300086E00E94B2008C2FCF910C94B2001F92E6
:100240000F920FB60F9211248F939F938091080104
:100250008F5F8D3319F0809308010BC01092080155
:1002600080910D0190910E01019690930E01809363
:100270000D0180910D0190910E01CC9769F41092BF
:100280000E0110920D0180910B0190910C010196CD
:1002900090930C0180930B019F918F910F900FBE53
:1002A0000F901F9018951F920F920FB60F92112466
:1002B0002F933F938F939F9389B180952091100145
:1002C000382F3227909101019323892F80958093B5
:1002D00001019091000193239827909300018323BB
:1002E0008923922F982790931001892390910F01D1
:1002F000892B80930F019F918F913F912F910F90A8
:100300000FBE0F901F901895CF93DF93CDB7DEB738
:100310002A970FB6F894DEBF0FBECDBF1092100122
:100320000E9448020E9444020E946F008CE00E94DA
:10033000E5000E9453000E9461000E94C2003C98A8
:100340008AB18C7D8AB98BB183628BB97894CC24C5
:10035000CA9483E0D82EE12CF12C80910D0190916C
:100360000E0140E066E00E945D0260E085E00E94D0
:10037000BB008AE30E94C50080910B0190910C01A3
:1003800040E063E00E945D0260E082E00E94BB000A
:100390008AE30E94C5008091090190910A0140E022
:1003A00060E00E945D022091780030917900A4EF16
:1003B000B1E00E94CC02A70196010E94AD02CA01E1
:1003C000B90161517140810991092AE0AE014F5F85
:1003D0005F4F0E94FD0260E089E00E94BB00CE01F9
:1003E00001960E94D90061E08BE00E94BB0082E090
:1003F00091E00E94D90082E00E945402882349F0D3
:1004000080910B0190910C01019690930C018093C7
:100410000B0181E00E945402882349F080910D0174
:1004200090910E01019690930E0180930D0180E250
:100430000E945402882349F08091090190910A0199
:10044000019690930A018093090180910B0190918C
:100450000C01CC9769F410920C0110920B01809161
:10046000090190910A01019690930A018093090174
:100470008091090190910A01489709F06ECF10927E
:100480000A011092090169CF85B5836085BD089581
:1004900082E08093B00096E09093B10097E2909351
:1004A000B300809370000895F89490910F01892310
:1004B000982790930F0178940895EF92FF920F93ED
:1004C0001F93CF93DF9300D000D0CDB7DEB77C0170
:1004D000162F042F642F81E0810F0E94BB00C701FB
:1004E0006AE070E00E9499027B014AE0BE016F5F02
:1004F0007F4F0E942E03CE0101960E94D900602FEB
:10050000812F0E94BB004AE0BE016F5F7F4FC70191
:100510000E942E03CE0101960E94D9000F900F90E9
:100520000F900F90DF91CF911F910F91FF90EF905F
:100530000895AA1BBB1B51E107C0AA1FBB1FA6172A
:10054000B70710F0A61BB70B881F991F5A95A9F77C
:1005500080959095BC01CD010895052E97FB1EF462
:1005600000940E94C40257FD07D00E94DB0207FCE2
:1005700003D04EF40C94C4025095409530952195CB
:100580003F4F4F4F5F4F08959095809570956195BF
:100590007F4F8F4F9F4F0895A29FB001B39FC0011F
:1005A000A39F700D811D1124911DB29F700D811D9F
:1005B0001124911D0895A1E21A2EAA1BBB1BFD0157
:1005C0000DC0AA1FBB1FEE1FFF1FA217B307E40732
:1005D000F50720F0A21BB30BE40BF50B661F771F8A
:1005E000881F991F1A9469F760957095809590956A
:1005F0009B01AC01BD01CF010895BB272A3051F406
:10060000992342F4BDE290958095709561957F4F56
:100610008F4F9F4F0C940D03BB27FA01A62F621733
:10062000710581059105330B30FB66F0AA27660F33
:10063000771F881F991FAA1FA21710F0A21B63958E
:100640003850A9F7A05DAA3308F0A95DA19336F749
:10065000B111B1931082CA010C944803BB27FB016E
:100660005527AA27880F991FAA1FA41710F0A41BAB
:1006700083955051B9F7A05DAA3308F0A95DA19305
:10068000009779F7B111B1931192CB010C94480303
:10069000DC01FC01672F71917723E1F7329704C0E9
:1006A0007C916D9370836291AE17BF07C8F3089574
:0406B000F894FFCFEC
:0806B400FFFF416C61726D0053
:00000001FF
