:100000000C9434000C9446000C9446000C9446006A
:100010000C9446000C9446000C9446000C94460048
:100020000C9446000C9446000C9446000C94460038
:100030000C9446000C9446000C9446000C94460028
:100040000C9448000C9446000C9446000C94460016
:100050000C9446000C9446000C9446000C94460008
:100060000C9446000C94460011241FBECFEFD8E03C
:10007000DEBFCDBF21E0A0E0B1E001C01D92A23003
:10008000B207E1F70E9464000C9413010C94000085
:100090001F920F920FB60F9211248F93809101013E
:1000A0008F5F8093010180910101863E39F41092A7
:1000B0000101809100018F5F809300018F910F906B
:1000C0000FBE0F901F9018950E940F010E947200A2
:1000D0008CE00E94D5000E94BE00789481E60E94C8
:1000E000C100FCCF81E080936E0008955C9A00000F
:1000F0005C980895CF93DF93D82F662311F05A9A16
:1001000001C05A985B9887B18F6087B9C8B1C07F2A
:100110008D2F82958F708C2B88B90E947600DF70AE
:10012000DC2BD8B90E947600CF60C8B9DF91CF919F
:1001300008955A985B9A87B1807F87B95C9A0000CE
:1001400096B15C9800005C9A000026B12F70892F50
:100150008295807F5C98822B08950E94990087FD8C
:10016000FCCF00C000C00C949900CF93C82F0E9410
:10017000AD0060E08C2FCF910C947A0081E00C945C
:10018000B500CF93C82F0E94AD00CA3049F4803427
:1001900010F080E001C080E48058CF910C94B5004D
:1001A00061E08C2FCF910C947A00CF93C82F87B148
:1001B0008F6087B9529A539A549A8FE99FE00197BA
:1001C000F1F700C00000419A409A0E94760081EE4B
:1001D00094E00197F1F700C000000E94760095E1DD
:1001E0009A95F1F700000E94760085E18A95F1F773
:1001F000000040980E94760095E19A95F1F7000082
:1002000088E20E94B50088E00E94B5000E94BE000E
:1002100086E00E94B5008C2FCF910C94B50085B577
:0A022000856085BD0895F894FFCFB6
:00000001FF
